{
  "fileName": "Boxs.sol",
  "contractName": "Boxs",
  "source": "// contracts/Box.sol\n// SPDX-License-Identifier: MIT\npragma solidity ^0.6.0;\n\n// Import Auth from the access-control subdirectory\n//import \"./access-control/Auth.sol\";\n\n\ncontract Boxs {\n    uint256 private value;\n    //Auth private auth;\n\n\n    // Emitted when the stored value changes\n    event ValueChanged(uint256 newValue);\n\n    // constructor(Auth _auth) public {\n    //     auth = _auth;\n    // }\n\n\n    // Stores a new value in the contract\n    function store(uint256 newValue) public {\n        // Require that the caller is registered as an administrator in Auth\n        //require(auth.isAdministrator(msg.sender), \"Unauthorized\");\n        \n        value = newValue;\n        emit ValueChanged(newValue);\n    }\n\n    // Reads the last stored value\n    function retrieve() public view returns (uint256) {\n        return value;\n    }\n\n    // Increments the stored value by 1\n    function increment() public {\n        value = value + 1;\n        emit ValueChanged(value);\n    }\n\n}",
  "sourcePath": "contracts/Boxs.sol",
  "abi": [
    {
      "anonymous": false,
      "inputs": [
        {
          "indexed": false,
          "internalType": "uint256",
          "name": "newValue",
          "type": "uint256"
        }
      ],
      "name": "ValueChanged",
      "type": "event"
    },
    {
      "inputs": [],
      "name": "increment",
      "outputs": [],
      "stateMutability": "nonpayable",
      "type": "function"
    },
    {
      "inputs": [],
      "name": "retrieve",
      "outputs": [
        {
          "internalType": "uint256",
          "name": "",
          "type": "uint256"
        }
      ],
      "stateMutability": "view",
      "type": "function"
    },
    {
      "inputs": [
        {
          "internalType": "uint256",
          "name": "newValue",
          "type": "uint256"
        }
      ],
      "name": "store",
      "outputs": [],
      "stateMutability": "nonpayable",
      "type": "function"
    }
  ],
  "bytecode": "0x608060405234801561001057600080fd5b50610163806100206000396000f3fe608060405234801561001057600080fd5b50600436106100415760003560e01c80632e64cec1146100465780636057361d14610064578063d09de08a14610092575b600080fd5b61004e61009c565b6040518082815260200191505060405180910390f35b6100906004803603602081101561007a57600080fd5b81019080803590602001909291905050506100a5565b005b61009a6100e6565b005b60008054905090565b806000819055507f93fe6d397c74fdf1402a8b72e47b68512f0510d7b98a4bc4cbdf6ac7108b3c59816040518082815260200191505060405180910390a150565b6001600054016000819055507f93fe6d397c74fdf1402a8b72e47b68512f0510d7b98a4bc4cbdf6ac7108b3c596000546040518082815260200191505060405180910390a156fea26469706673582212203d6edcf499ef475820228dcb48ae1dfa21c2cafbf93a83a5edb99a1ffbdd503664736f6c634300060c0033",
  "compiler": {
    "name": "solc",
    "version": "0.6.12+commit.27d51765.Emscripten.clang",
    "optimizer": {
      "enabled": false,
      "runs": 200
    },
    "evmVersion": "petersburg"
  }
}